{
  "contractName": "Credential",
  "abi": [
    {
      "anonymous": false,
      "inputs": [
        {
          "indexed": false,
          "internalType": "address",
          "name": "candidate",
          "type": "address"
        }
      ],
      "name": "candidateListed",
      "type": "event"
    },
    {
      "anonymous": false,
      "inputs": [
        {
          "indexed": false,
          "internalType": "uint256",
          "name": "claimId",
          "type": "uint256"
        },
        {
          "indexed": false,
          "internalType": "address",
          "name": "verifier",
          "type": "address"
        }
      ],
      "name": "claimCreated",
      "type": "event"
    },
    {
      "anonymous": false,
      "inputs": [
        {
          "indexed": false,
          "internalType": "address",
          "name": "institution",
          "type": "address"
        }
      ],
      "name": "institutionListed",
      "type": "event"
    },
    {
      "constant": true,
      "inputs": [
        {
          "internalType": "address",
          "name": "",
          "type": "address"
        },
        {
          "internalType": "uint256",
          "name": "",
          "type": "uint256"
        }
      ],
      "name": "candidate_claim_records",
      "outputs": [
        {
          "internalType": "address",
          "name": "candidate",
          "type": "address"
        },
        {
          "internalType": "address",
          "name": "verifier",
          "type": "address"
        },
        {
          "internalType": "int256",
          "name": "score",
          "type": "int256"
        },
        {
          "internalType": "uint256",
          "name": "id",
          "type": "uint256"
        },
        {
          "internalType": "string",
          "name": "content",
          "type": "string"
        },
        {
          "internalType": "uint8",
          "name": "status",
          "type": "uint8"
        }
      ],
      "payable": false,
      "stateMutability": "view",
      "type": "function"
    },
    {
      "constant": true,
      "inputs": [
        {
          "internalType": "address",
          "name": "",
          "type": "address"
        }
      ],
      "name": "candidate_pool",
      "outputs": [
        {
          "internalType": "bool",
          "name": "",
          "type": "bool"
        }
      ],
      "payable": false,
      "stateMutability": "view",
      "type": "function"
    },
    {
      "constant": true,
      "inputs": [
        {
          "internalType": "address",
          "name": "",
          "type": "address"
        }
      ],
      "name": "candidate_total_scores",
      "outputs": [
        {
          "internalType": "int256",
          "name": "",
          "type": "int256"
        }
      ],
      "payable": false,
      "stateMutability": "view",
      "type": "function"
    },
    {
      "constant": true,
      "inputs": [
        {
          "internalType": "address",
          "name": "",
          "type": "address"
        }
      ],
      "name": "candidate_verified_claim_count",
      "outputs": [
        {
          "internalType": "int256",
          "name": "",
          "type": "int256"
        }
      ],
      "payable": false,
      "stateMutability": "view",
      "type": "function"
    },
    {
      "constant": true,
      "inputs": [
        {
          "internalType": "uint256",
          "name": "",
          "type": "uint256"
        }
      ],
      "name": "claim_records",
      "outputs": [
        {
          "internalType": "address",
          "name": "candidate",
          "type": "address"
        },
        {
          "internalType": "address",
          "name": "verifier",
          "type": "address"
        },
        {
          "internalType": "int256",
          "name": "score",
          "type": "int256"
        },
        {
          "internalType": "uint256",
          "name": "id",
          "type": "uint256"
        },
        {
          "internalType": "string",
          "name": "content",
          "type": "string"
        },
        {
          "internalType": "uint8",
          "name": "status",
          "type": "uint8"
        }
      ],
      "payable": false,
      "stateMutability": "view",
      "type": "function"
    },
    {
      "constant": true,
      "inputs": [
        {
          "internalType": "address",
          "name": "",
          "type": "address"
        }
      ],
      "name": "institution_pool",
      "outputs": [
        {
          "internalType": "bool",
          "name": "",
          "type": "bool"
        }
      ],
      "payable": false,
      "stateMutability": "view",
      "type": "function"
    },
    {
      "constant": true,
      "inputs": [
        {
          "internalType": "uint256",
          "name": "",
          "type": "uint256"
        },
        {
          "internalType": "address",
          "name": "",
          "type": "address"
        }
      ],
      "name": "permission_records",
      "outputs": [
        {
          "internalType": "bool",
          "name": "",
          "type": "bool"
        }
      ],
      "payable": false,
      "stateMutability": "view",
      "type": "function"
    },
    {
      "constant": true,
      "inputs": [
        {
          "internalType": "address",
          "name": "_check",
          "type": "address"
        }
      ],
      "name": "recordExists",
      "outputs": [
        {
          "internalType": "bool",
          "name": "",
          "type": "bool"
        }
      ],
      "payable": false,
      "stateMutability": "view",
      "type": "function"
    },
    {
      "constant": false,
      "inputs": [
        {
          "internalType": "address",
          "name": "candidate",
          "type": "address"
        }
      ],
      "name": "listCandidate",
      "outputs": [],
      "payable": false,
      "stateMutability": "nonpayable",
      "type": "function"
    },
    {
      "constant": false,
      "inputs": [
        {
          "internalType": "address",
          "name": "institution",
          "type": "address"
        }
      ],
      "name": "listInstitution",
      "outputs": [],
      "payable": false,
      "stateMutability": "nonpayable",
      "type": "function"
    },
    {
      "constant": false,
      "inputs": [
        {
          "internalType": "address",
          "name": "verifying_institution",
          "type": "address"
        },
        {
          "internalType": "string",
          "name": "details",
          "type": "string"
        }
      ],
      "name": "createClaim",
      "outputs": [],
      "payable": false,
      "stateMutability": "nonpayable",
      "type": "function"
    },
    {
      "constant": false,
      "inputs": [
        {
          "internalType": "uint256",
          "name": "claimId",
          "type": "uint256"
        },
        {
          "internalType": "int256",
          "name": "score",
          "type": "int256"
        },
        {
          "internalType": "uint8",
          "name": "status",
          "type": "uint8"
        }
      ],
      "name": "do_score",
      "outputs": [],
      "payable": false,
      "stateMutability": "nonpayable",
      "type": "function"
    },
    {
      "constant": false,
      "inputs": [
        {
          "internalType": "uint256",
          "name": "claim_id",
          "type": "uint256"
        }
      ],
      "name": "revoke",
      "outputs": [],
      "payable": false,
      "stateMutability": "nonpayable",
      "type": "function"
    },
    {
      "constant": false,
      "inputs": [
        {
          "internalType": "address",
          "name": "thirdParty",
          "type": "address"
        },
        {
          "internalType": "uint256",
          "name": "claim_id",
          "type": "uint256"
        }
      ],
      "name": "givePermission",
      "outputs": [],
      "payable": false,
      "stateMutability": "nonpayable",
      "type": "function"
    },
    {
      "constant": true,
      "inputs": [
        {
          "internalType": "uint256",
          "name": "claim_id",
          "type": "uint256"
        }
      ],
      "name": "viewClaim",
      "outputs": [
        {
          "internalType": "string",
          "name": "",
          "type": "string"
        }
      ],
      "payable": false,
      "stateMutability": "view",
      "type": "function"
    },
    {
      "constant": true,
      "inputs": [],
      "name": "getClaimId",
      "outputs": [
        {
          "internalType": "uint256",
          "name": "",
          "type": "uint256"
        }
      ],
      "payable": false,
      "stateMutability": "view",
      "type": "function"
    },
    {
      "constant": true,
      "inputs": [
        {
          "internalType": "uint256",
          "name": "claim_id",
          "type": "uint256"
        }
      ],
      "name": "getStatus",
      "outputs": [
        {
          "internalType": "uint8",
          "name": "",
          "type": "uint8"
        }
      ],
      "payable": false,
      "stateMutability": "view",
      "type": "function"
    },
    {
      "constant": true,
      "inputs": [
        {
          "internalType": "uint256",
          "name": "claim_id",
          "type": "uint256"
        }
      ],
      "name": "getScore",
      "outputs": [
        {
          "internalType": "int256",
          "name": "",
          "type": "int256"
        }
      ],
      "payable": false,
      "stateMutability": "view",
      "type": "function"
    },
    {
      "constant": true,
      "inputs": [
        {
          "internalType": "address",
          "name": "candidate",
          "type": "address"
        }
      ],
      "name": "getCandidateScore",
      "outputs": [
        {
          "internalType": "int256",
          "name": "",
          "type": "int256"
        }
      ],
      "payable": false,
      "stateMutability": "view",
      "type": "function"
    }
  ],
  "bytecode": "0x6080604052600060075534801561001557600080fd5b506126b7806100256000396000f3fe608060405234801561001057600080fd5b50600436106101215760003560e01c80638362615a116100ad578063b23b080e11610071578063b23b080e14610674578063c1274884146106cc578063d6fc482914610724578063e3ed502c14610768578063e68b96dd146108b057610121565b80638362615a14610515578063865c9e4314610571578063909ee5d7146105b6578063947f3f1d146105d4578063a906d0b81461063057610121565b8063225c76c3116100f4578063225c76c314610324578063359232fe146103725780635c622a0e146103ca57806362fe25921461041257806366406d5e1461046e57610121565b80630e1af57b1461012657806310a6e2ec1461016857806315dd6b62146101ce57806320c5429b146102f6575b600080fd5b6101526004803603602081101561013c57600080fd5b810190808035906020019092919050505061098b565b6040518082815260200191505060405180910390f35b6101b46004803603604081101561017e57600080fd5b8101908080359060200190929190803573ffffffffffffffffffffffffffffffffffffffff169060200190929190505050610b36565b604051808215151515815260200191505060405180910390f35b6101fa600480360360208110156101e457600080fd5b8101908080359060200190929190505050610b65565b604051808773ffffffffffffffffffffffffffffffffffffffff1673ffffffffffffffffffffffffffffffffffffffff1681526020018673ffffffffffffffffffffffffffffffffffffffff1673ffffffffffffffffffffffffffffffffffffffff168152602001858152602001848152602001806020018360ff1660ff168152602001828103825284818151815260200191508051906020019080838360005b838110156102b657808201518184015260208101905061029b565b50505050905090810190601f1680156102e35780820380516001836020036101000a031916815260200191505b5097505050505050505060405180910390f35b6103226004803603602081101561030c57600080fd5b8101908080359060200190929190505050610c86565b005b6103706004803603604081101561033a57600080fd5b81019080803573ffffffffffffffffffffffffffffffffffffffff16906020019092919080359060200190929190505050610fb2565b005b6103b46004803603602081101561038857600080fd5b81019080803573ffffffffffffffffffffffffffffffffffffffff16906020019092919050505061123a565b6040518082815260200191505060405180910390f35b6103f6600480360360208110156103e057600080fd5b8101908080359060200190929190505050611252565b604051808260ff1660ff16815260200191505060405180910390f35b6104546004803603602081101561042857600080fd5b81019080803573ffffffffffffffffffffffffffffffffffffffff16906020019092919050505061140a565b604051808215151515815260200191505060405180910390f35b61049a6004803603602081101561048457600080fd5b81019080803590602001909291905050506114c5565b6040518080602001828103825283818151815260200191508051906020019080838360005b838110156104da5780820151818401526020810190506104bf565b50505050905090810190601f1680156105075780820380516001836020036101000a031916815260200191505b509250505060405180910390f35b6105576004803603602081101561052b57600080fd5b81019080803573ffffffffffffffffffffffffffffffffffffffff169060200190929190505050611708565b604051808215151515815260200191505060405180910390f35b6105b46004803603606081101561058757600080fd5b810190808035906020019092919080359060200190929190803560ff169060200190929190505050611728565b005b6105be611b7c565b6040518082815260200191505060405180910390f35b610616600480360360208110156105ea57600080fd5b81019080803573ffffffffffffffffffffffffffffffffffffffff169060200190929190505050611b89565b604051808215151515815260200191505060405180910390f35b6106726004803603602081101561064657600080fd5b81019080803573ffffffffffffffffffffffffffffffffffffffff169060200190929190505050611ba9565b005b6106b66004803603602081101561068a57600080fd5b81019080803573ffffffffffffffffffffffffffffffffffffffff169060200190929190505050611cc6565b6040518082815260200191505060405180910390f35b61070e600480360360208110156106e257600080fd5b81019080803573ffffffffffffffffffffffffffffffffffffffff169060200190929190505050611cde565b6040518082815260200191505060405180910390f35b6107666004803603602081101561073a57600080fd5b81019080803573ffffffffffffffffffffffffffffffffffffffff169060200190929190505050611d27565b005b6107b46004803603604081101561077e57600080fd5b81019080803573ffffffffffffffffffffffffffffffffffffffff16906020019092919080359060200190929190505050611e44565b604051808773ffffffffffffffffffffffffffffffffffffffff1673ffffffffffffffffffffffffffffffffffffffff1681526020018673ffffffffffffffffffffffffffffffffffffffff1673ffffffffffffffffffffffffffffffffffffffff168152602001858152602001848152602001806020018360ff1660ff168152602001828103825284818151815260200191508051906020019080838360005b83811015610870578082015181840152602081019050610855565b50505050905090810190601f16801561089d5780820380516001836020036101000a031916815260200191505b5097505050505050505060405180910390f35b610989600480360360408110156108c657600080fd5b81019080803573ffffffffffffffffffffffffffffffffffffffff1690602001909291908035906020019064010000000081111561090357600080fd5b82018360208201111561091557600080fd5b8035906020019184600183028401116401000000008311171561093757600080fd5b91908080601f016020809104026020016040519081016040528093929190818152602001838380828437600081840152601f19601f820116905080830192505050505050509192919290505050611f7f565b005b60003373ffffffffffffffffffffffffffffffffffffffff166001600084815260200190815260200160002060000160009054906101000a900473ffffffffffffffffffffffffffffffffffffffff1673ffffffffffffffffffffffffffffffffffffffff161480610a5e57503373ffffffffffffffffffffffffffffffffffffffff166001600084815260200190815260200160002060010160009054906101000a900473ffffffffffffffffffffffffffffffffffffffff1673ffffffffffffffffffffffffffffffffffffffff16145b80610ac357506002600083815260200190815260200160002060003373ffffffffffffffffffffffffffffffffffffffff1673ffffffffffffffffffffffffffffffffffffffff16815260200190815260200160002060009054906101000a900460ff165b610b18576040517f08c379a000000000000000000000000000000000000000000000000000000000815260040180806020018281038252602381526020018061256f6023913960400191505060405180910390fd5b60016000838152602001908152602001600020600201549050919050565b60026020528160005260406000206020528060005260406000206000915091509054906101000a900460ff1681565b60016020528060005260406000206000915090508060000160009054906101000a900473ffffffffffffffffffffffffffffffffffffffff16908060010160009054906101000a900473ffffffffffffffffffffffffffffffffffffffff1690806002015490806003015490806004018054600181600116156101000203166002900480601f016020809104026020016040519081016040528092919081815260200182805460018160011615610100020316600290048015610c695780601f10610c3e57610100808354040283529160200191610c69565b820191906000526020600020905b815481529060010190602001808311610c4c57829003601f168201915b5050505050908060050160009054906101000a900460ff16905086565b600660003373ffffffffffffffffffffffffffffffffffffffff1673ffffffffffffffffffffffffffffffffffffffff16815260200190815260200160002060009054906101000a900460ff16610d28576040517f08c379a00000000000000000000000000000000000000000000000000000000081526004018080602001828103825260228152602001806125de6022913960400191505060405180910390fd5b3373ffffffffffffffffffffffffffffffffffffffff166001600083815260200190815260200160002060010160009054906101000a900473ffffffffffffffffffffffffffffffffffffffff1673ffffffffffffffffffffffffffffffffffffffff1614610de2576040517f08c379a00000000000000000000000000000000000000000000000000000000081526004018080602001828103825260258152602001806125926025913960400191505060405180910390fd5b60036001600083815260200190815260200160002060050160006101000a81548160ff021916908360ff16021790555060006001600083815260200190815260200160002060000160009054906101000a900473ffffffffffffffffffffffffffffffffffffffff1690506000600360008373ffffffffffffffffffffffffffffffffffffffff1673ffffffffffffffffffffffffffffffffffffffff1681526020019081526020016000205490506000600160008581526020019081526020016000206002015490506000600460008573ffffffffffffffffffffffffffffffffffffffff1673ffffffffffffffffffffffffffffffffffffffff16815260200190815260200160002054905060006001821415610f08576000905060009150610f22565b60018203838386020381610f1857fe5b0590506001820391505b80600360008773ffffffffffffffffffffffffffffffffffffffff1673ffffffffffffffffffffffffffffffffffffffff1681526020019081526020016000208190555081600460008773ffffffffffffffffffffffffffffffffffffffff1673ffffffffffffffffffffffffffffffffffffffff16815260200190815260200160002081905550505050505050565b600560003373ffffffffffffffffffffffffffffffffffffffff1673ffffffffffffffffffffffffffffffffffffffff16815260200190815260200160002060009054906101000a900460ff16611071576040517f08c379a000000000000000000000000000000000000000000000000000000000815260040180806020018281038252601f8152602001807f53656e646572206973206e6f7420696e2063616e64696461746520706f6f6c0081525060200191505060405180910390fd5b3373ffffffffffffffffffffffffffffffffffffffff166001600083815260200190815260200160002060000160009054906101000a900473ffffffffffffffffffffffffffffffffffffffff1673ffffffffffffffffffffffffffffffffffffffff161461112b576040517f08c379a000000000000000000000000000000000000000000000000000000000815260040180806020018281038252602e815260200180612600602e913960400191505060405180910390fd5b600660008373ffffffffffffffffffffffffffffffffffffffff1673ffffffffffffffffffffffffffffffffffffffff16815260200190815260200160002060009054906101000a900460ff166111cd576040517f08c379a00000000000000000000000000000000000000000000000000000000081526004018080602001828103825260278152602001806125b76027913960400191505060405180910390fd5b60016002600083815260200190815260200160002060008473ffffffffffffffffffffffffffffffffffffffff1673ffffffffffffffffffffffffffffffffffffffff16815260200190815260200160002060006101000a81548160ff0219169083151502179055505050565b60046020528060005260406000206000915090505481565b60003373ffffffffffffffffffffffffffffffffffffffff166001600084815260200190815260200160002060000160009054906101000a900473ffffffffffffffffffffffffffffffffffffffff1673ffffffffffffffffffffffffffffffffffffffff16148061132557503373ffffffffffffffffffffffffffffffffffffffff166001600084815260200190815260200160002060010160009054906101000a900473ffffffffffffffffffffffffffffffffffffffff1673ffffffffffffffffffffffffffffffffffffffff16145b8061138a57506002600083815260200190815260200160002060003373ffffffffffffffffffffffffffffffffffffffff1673ffffffffffffffffffffffffffffffffffffffff16815260200190815260200160002060009054906101000a900460ff165b6113df576040517f08c379a000000000000000000000000000000000000000000000000000000000815260040180806020018281038252602381526020018061256f6023913960400191505060405180910390fd5b6001600083815260200190815260200160002060050160009054906101000a900460ff169050919050565b60008060009050600560008473ffffffffffffffffffffffffffffffffffffffff1673ffffffffffffffffffffffffffffffffffffffff16815260200190815260200160002060009054906101000a900460ff16806114b25750600660008473ffffffffffffffffffffffffffffffffffffffff1673ffffffffffffffffffffffffffffffffffffffff16815260200190815260200160002060009054906101000a900460ff165b156114bc57600190505b80915050919050565b60603373ffffffffffffffffffffffffffffffffffffffff166001600084815260200190815260200160002060000160009054906101000a900473ffffffffffffffffffffffffffffffffffffffff1673ffffffffffffffffffffffffffffffffffffffff16148061159857503373ffffffffffffffffffffffffffffffffffffffff166001600084815260200190815260200160002060010160009054906101000a900473ffffffffffffffffffffffffffffffffffffffff1673ffffffffffffffffffffffffffffffffffffffff16145b806115fd57506002600083815260200190815260200160002060003373ffffffffffffffffffffffffffffffffffffffff1673ffffffffffffffffffffffffffffffffffffffff16815260200190815260200160002060009054906101000a900460ff165b611652576040517f08c379a000000000000000000000000000000000000000000000000000000000815260040180806020018281038252602381526020018061256f6023913960400191505060405180910390fd5b600160008381526020019081526020016000206004018054600181600116156101000203166002900480601f0160208091040260200160405190810160405280929190818152602001828054600181600116156101000203166002900480156116fc5780601f106116d1576101008083540402835291602001916116fc565b820191906000526020600020905b8154815290600101906020018083116116df57829003601f168201915b50505050509050919050565b60066020528060005260406000206000915054906101000a900460ff1681565b600660003373ffffffffffffffffffffffffffffffffffffffff1673ffffffffffffffffffffffffffffffffffffffff16815260200190815260200160002060009054906101000a900460ff166117ca576040517f08c379a00000000000000000000000000000000000000000000000000000000081526004018080602001828103825260228152602001806125de6022913960400191505060405180910390fd5b7fffffffffffffffffffffffffffffffffffffffffffffffffffffffffffffffff600160008581526020019081526020016000206002015414611875576040517f08c379a000000000000000000000000000000000000000000000000000000000815260040180806020018281038252601e8152602001807f436c61696d20616c72656164792061737369676e656420612073636f7265000081525060200191505060405180910390fd5b60026001600085815260200190815260200160002060050160009054906101000a900460ff1660ff16146118f4576040517f08c379a000000000000000000000000000000000000000000000000000000000815260040180806020018281038252602f815260200180612654602f913960400191505060405180910390fd5b3373ffffffffffffffffffffffffffffffffffffffff166001600085815260200190815260200160002060010160009054906101000a900473ffffffffffffffffffffffffffffffffffffffff1673ffffffffffffffffffffffffffffffffffffffff16146119ae576040517f08c379a00000000000000000000000000000000000000000000000000000000081526004018080602001828103825260258152602001806125926025913960400191505060405180910390fd5b81600160008581526020019081526020016000206002018190555060006001600085815260200190815260200160002060000160009054906101000a900473ffffffffffffffffffffffffffffffffffffffff1690506000600360008373ffffffffffffffffffffffffffffffffffffffff1673ffffffffffffffffffffffffffffffffffffffff1681526020019081526020016000205490506000600460008473ffffffffffffffffffffffffffffffffffffffff1673ffffffffffffffffffffffffffffffffffffffff168152602001908152602001600020549050600080821415611aa25785905060019150611abc565b85828402019050600182019150818181611ab857fe5b0590505b80600360008673ffffffffffffffffffffffffffffffffffffffff1673ffffffffffffffffffffffffffffffffffffffff1681526020019081526020016000208190555081600460008673ffffffffffffffffffffffffffffffffffffffff1673ffffffffffffffffffffffffffffffffffffffff16815260200190815260200160002081905550846001600089815260200190815260200160002060050160006101000a81548160ff021916908360ff16021790555050505050505050565b6000600160075403905090565b60056020528060005260406000206000915054906101000a900460ff1681565b611bb28161140a565b15611c08576040517f08c379a000000000000000000000000000000000000000000000000000000000815260040180806020018281038252602681526020018061262e6026913960400191505060405180910390fd5b6001600660008373ffffffffffffffffffffffffffffffffffffffff1673ffffffffffffffffffffffffffffffffffffffff16815260200190815260200160002060006101000a81548160ff0219169083151502179055507f85aa0733b3fb7eb6446d3678b2b764111c325bbfbc9f61b3c5e82fdd84b48cbe81604051808273ffffffffffffffffffffffffffffffffffffffff1673ffffffffffffffffffffffffffffffffffffffff16815260200191505060405180910390a150565b60036020528060005260406000206000915090505481565b6000600360008373ffffffffffffffffffffffffffffffffffffffff1673ffffffffffffffffffffffffffffffffffffffff168152602001908152602001600020549050919050565b611d308161140a565b15611d86576040517f08c379a000000000000000000000000000000000000000000000000000000000815260040180806020018281038252602681526020018061262e6026913960400191505060405180910390fd5b6001600560008373ffffffffffffffffffffffffffffffffffffffff1673ffffffffffffffffffffffffffffffffffffffff16815260200190815260200160002060006101000a81548160ff0219169083151502179055507f53e5bd3bd4e32e2ff00492ad5cd171f1fe8a68a71948a847ef5a69c17d9eece781604051808273ffffffffffffffffffffffffffffffffffffffff1673ffffffffffffffffffffffffffffffffffffffff16815260200191505060405180910390a150565b60006020528160005260406000208181548110611e5d57fe5b9060005260206000209060060201600091509150508060000160009054906101000a900473ffffffffffffffffffffffffffffffffffffffff16908060010160009054906101000a900473ffffffffffffffffffffffffffffffffffffffff1690806002015490806003015490806004018054600181600116156101000203166002900480601f016020809104026020016040519081016040528092919081815260200182805460018160011615610100020316600290048015611f625780601f10611f3757610100808354040283529160200191611f62565b820191906000526020600020905b815481529060010190602001808311611f4557829003601f168201915b5050505050908060050160009054906101000a900460ff16905086565b600560003373ffffffffffffffffffffffffffffffffffffffff1673ffffffffffffffffffffffffffffffffffffffff16815260200190815260200160002060009054906101000a900460ff1661203e576040517f08c379a00000000000000000000000000000000000000000000000000000000081526004018080602001828103825260208152602001807f53656e646572206973206e6f742061206c69737465642063616e64696461746581525060200191505060405180910390fd5b600660008373ffffffffffffffffffffffffffffffffffffffff1673ffffffffffffffffffffffffffffffffffffffff16815260200190815260200160002060009054906101000a900460ff166120e0576040517f08c379a000000000000000000000000000000000000000000000000000000000815260040180806020018281038252603181526020018061253e6031913960400191505060405180910390fd5b6120e8612433565b6040518060c001604052803373ffffffffffffffffffffffffffffffffffffffff1681526020018473ffffffffffffffffffffffffffffffffffffffff1681526020017fffffffffffffffffffffffffffffffffffffffffffffffffffffffffffffffff81526020016007548152602001838152602001600260ff1681525090507f0278a23d8cc9b35e5a0f92559447690fbbcd1ee49a581d7e8cf80b320da42d7e60075484604051808381526020018273ffffffffffffffffffffffffffffffffffffffff1673ffffffffffffffffffffffffffffffffffffffff1681526020019250505060405180910390a16000803373ffffffffffffffffffffffffffffffffffffffff1673ffffffffffffffffffffffffffffffffffffffff168152602001908152602001600020819080600181540180825580915050906001820390600052602060002090600602016000909192909190915060008201518160000160006101000a81548173ffffffffffffffffffffffffffffffffffffffff021916908373ffffffffffffffffffffffffffffffffffffffff16021790555060208201518160010160006101000a81548173ffffffffffffffffffffffffffffffffffffffff021916908373ffffffffffffffffffffffffffffffffffffffff160217905550604082015181600201556060820151816003015560808201518160040190805190602001906122fe929190612498565b5060a08201518160050160006101000a81548160ff021916908360ff1602179055505050508060016000600754815260200190815260200160002060008201518160000160006101000a81548173ffffffffffffffffffffffffffffffffffffffff021916908373ffffffffffffffffffffffffffffffffffffffff16021790555060208201518160010160006101000a81548173ffffffffffffffffffffffffffffffffffffffff021916908373ffffffffffffffffffffffffffffffffffffffff160217905550604082015181600201556060820151816003015560808201518160040190805190602001906123f7929190612498565b5060a08201518160050160006101000a81548160ff021916908360ff160217905550905050600760008154809291906001019190505550505050565b6040518060c00160405280600073ffffffffffffffffffffffffffffffffffffffff168152602001600073ffffffffffffffffffffffffffffffffffffffff168152602001600081526020016000815260200160608152602001600060ff1681525090565b828054600181600116156101000203166002900490600052602060002090601f016020900481019282601f106124d957805160ff1916838001178555612507565b82800160010185558215612507579182015b828111156125065782518255916020019190600101906124eb565b5b5090506125149190612518565b5090565b61253a91905b8082111561253657600081600090555060010161251e565b5090565b9056fe566572696679696e6720696e737469747574696f6e206973206e6f742061206c697374656420696e737469747574696f6e53656e64657220646f6573206e6f7420686176652076696577696e672072696768747353656e64657220646f6573206e6f74206861766520766572696679696e67207269676874735468697264207061727479206973206e6f742061206c697374656420696e737469747574696f6e53656e646572206973206e6f742061206c697374656420696e737469747574696f6e53656e646572206973206e6f74207468652063616e646964617465206f662073706563696669656420636c61696d4163636f756e74206861732070726576696f75736c79206265656e20726567697374657265644f6e6c792070656e64696e6720636c61696d732063616e2062652061737369676e65642061206e65772073636f7265a265627a7a72315820b7b5d7672d6562d29d13444ae9d27dfc79237a1d7d93123f51bf96c4d68d4db764736f6c63430005100032",
  "source": "pragma solidity ^0.5.0;\n\ncontract Credential {\n    \n    mapping(address => claim[]) public candidate_claim_records;\n    mapping(uint256 => claim) public claim_records;\n    mapping(uint256 => mapping(address => bool)) public permission_records; // Claim Id ==> Third Party's Address => Bool of permission given\n    mapping(address => int256) public candidate_total_scores;\n    mapping(address => int256) public candidate_verified_claim_count;\n    mapping(address => bool) public candidate_pool;\n    mapping(address => bool) public institution_pool;\n\n    uint256 claim_counter = 0;\n\n    struct claim {\n        address candidate;\n        address verifier;\n        int256 score;\n        uint256 id;\n        string content; // points to firebase database\n        uint8 status; // 0 is false, 1 is true, 2 is pending, 3 for revoke status?\n    }\n    \n    event claimCreated(uint256 claimId, address verifier);\n    event candidateListed (address candidate);\n    event institutionListed (address institution);\n\n    function recordExists(address _check) view public returns(bool) {\n        bool result = false;\n        if(candidate_pool[_check] || institution_pool[_check]) {\n            result = true;\n        } \n        return result;\n    }\n\n    function listCandidate(address candidate) public {\n        if (recordExists(candidate)){\n            revert(\"Account has previously been registered\");\n        } else {\n        candidate_pool[candidate] = true;\n        emit candidateListed(candidate);\n        }\n    }\n    \n    function listInstitution(address institution) public {\n        if (recordExists(institution)){\n            revert(\"Account has previously been registered\");\n        } else {\n        institution_pool[institution] = true;\n        emit institutionListed(institution);\n        }\n    }\n\n    function createClaim(address verifying_institution, string memory details) public {\n        require(candidate_pool[msg.sender], \"Sender is not a listed candidate\");\n        require(institution_pool[verifying_institution], \"Verifying institution is not a listed institution\");\n\n        // Create a claim instance\n        claim memory newClaim = claim(\n            msg.sender,\n            verifying_institution,\n            -1, // no score assigned yet\n            claim_counter,\n            details, // populate claims with details (string)\n            2 // pending\n        );\n\n        // when they call this, then it sends to a verifier\n        emit claimCreated(claim_counter, verifying_institution);\n        \n        // Add to candidate_claim_records\n        candidate_claim_records[msg.sender].push(newClaim);\n\n        // update claim_records\n        claim_records[claim_counter] = newClaim;\n        claim_counter++;\n    }\n\n    function do_score(uint256 claimId, int256 score, uint8 status) public {\n        require(institution_pool[msg.sender], \"Sender is not a listed institution\");\n        require(claim_records[claimId].score == -1, \"Claim already assigned a score\");\n        require(claim_records[claimId].status == 2, \"Only pending claims can be assigned a new score\");\n        require(claim_records[claimId].verifier == msg.sender, \"Sender does not have verifying rights\");\n\n         // update claim score\n        claim_records[claimId].score = score; \n\n        // update candidate total score\n        address candidate = claim_records[claimId].candidate;\n        int256 prev_score = candidate_total_scores[candidate];\n        int256 claim_count = candidate_verified_claim_count[candidate];\n        int256 updated_score;\n        if(claim_count == 0) {\n            updated_score = score;\n            claim_count = 1;\n        } else {\n            updated_score = (prev_score * claim_count) + score;\n            claim_count += 1;\n            updated_score = updated_score / claim_count; \n        }\n        candidate_total_scores[candidate] = updated_score;\n        candidate_verified_claim_count[candidate] = claim_count;\n\n        // update status\n        claim_records[claimId].status = status;\n    }\n\n    function revoke(uint256 claim_id) public {\n        require(institution_pool[msg.sender], \"Sender is not a listed institution\");\n        require(claim_records[claim_id].verifier == msg.sender, \"Sender does not have verifying rights\");\n        \n        //change status to revoke claim validity\n        claim_records[claim_id].status = 3; // 3 for revoke status\n\n        // update candidate total score\n        address candidate = claim_records[claim_id].candidate;\n        int256 prev_score = candidate_total_scores[candidate];\n        int256 revoked_score = claim_records[claim_id].score;\n        int256 claim_count = candidate_verified_claim_count[candidate];\n        int256 updated_score;\n\n        if (claim_count == 1) {\n            updated_score = 0;\n            claim_count = 0;\n        } else {\n            updated_score = ((prev_score * claim_count) - revoked_score) / (claim_count - 1);\n            claim_count -= 1;\n        }\n        \n        candidate_total_scores[candidate] = updated_score;\n        candidate_verified_claim_count[candidate] = claim_count;\n        \n    }\n\n    function givePermission(address thirdParty, uint256 claim_id) public {\n        require(candidate_pool[msg.sender], \"Sender is not in candidate pool\");\n        require(claim_records[claim_id].candidate == msg.sender, \"Sender is not the candidate of specified claim\");\n        require(institution_pool[thirdParty], \"Third party is not a listed institution\");\n\n        permission_records[claim_id][thirdParty] = true;\n    }\n\n    function viewClaim(uint256 claim_id) public view returns(string memory){\n        require(claim_records[claim_id].candidate == msg.sender || claim_records[claim_id].verifier == msg.sender || permission_records[claim_id][msg.sender],\n        \"Sender does not have viewing rights\"); //Only the owner/verifier/allowed third-party can view the claim\n        return(claim_records[claim_id].content);\n    }\n\n\n    //ADDITIONAL GETTERS TO SUPPORT VUE APP\n    function getClaimId() view public returns (uint256) {\n        // returns current claim counter\n        return claim_counter-1;\n    }\n    function getStatus(uint256 claim_id) view public returns (uint8) {\n        require(claim_records[claim_id].candidate == msg.sender || claim_records[claim_id].verifier == msg.sender || permission_records[claim_id][msg.sender],\n        \"Sender does not have viewing rights\"); //Only the owner/verifier/allowed third-party can view the claim\n        return claim_records[claim_id].status;\n    }\n    function getScore(uint256 claim_id) view public returns (int256) {\n        require(claim_records[claim_id].candidate == msg.sender || claim_records[claim_id].verifier == msg.sender || permission_records[claim_id][msg.sender],\n        \"Sender does not have viewing rights\"); //Only the owner/verifier/allowed third-party can view the claim\n        return claim_records[claim_id].score;\n    }\n    function getCandidateScore(address candidate) view public returns (int256) {\n        return candidate_total_scores[candidate];\n    }\n}",
  "sourcePath": "/Users/vibhukrovvidi/Desktop/dissertation/testzkp/contracts/dusty.sol",
  "compiler": {
    "name": "solc",
    "version": "0.5.16+commit.9c3226ce.Emscripten.clang"
  },
  "schemaVersion": "3.3.3",
  "updatedAt": "2021-10-13T07:12:17.998Z",
  "devdoc": {
    "methods": {}
  },
  "userdoc": {
    "methods": {}
  }
}